:100000000C946F020C9481020C9481020C94810276
:100010000C9481020C9481020C9481020C94810254
:100020000C9481020C9481020C94E3080C948102DC
:100030000C9481020C9442090C94B20C0C94810231
:100040000C9481020C9481020C9481020C94810224
:100050000C9481020C9481020C9481020C94810214
:100060000C9481020C948102454E544552204B451C
:10007000592053455155454E434500535445502052
:1000800031202F204B4E4F574C4544474500544F8D
:1000900020454E524F4C4C00484F4C44204B455944
:1000A00031203273004E4F5420454E524F4C4C4538
:1000B00044002D2D2D2D2D2D2D2D2D2D2D2D2D2D86
:1000C0002D2D2D2D2D2D2D004B4E4F434B203246E7
:1000D00041204C4F434B002A00524550454154208B
:1000E0004C4546543A004B4E4F434B203420544924
:1000F0004D4553002D2D2D2D2D2D2D2D2D2D2D2DFF
:100100002D2D2D2D2D2D2D2D2D00535445502032CC
:10011000202F2052485954484D00202020202020D4
:1001200000534543005741495400544F4F204D411F
:100130004E59204641494C55524553002D2D2D2DE9
:100140002D2D2D2D2D2D2D2D2D2D2D2D2D2D2D2DDF
:100150002D00212121204C4F434B4544204F555425
:10016000202121210050524553532034204B455922
:1001700053002D2D2D2D2D2D2D2D2D2D2D2D2D2DB6
:100180002D2D2D2D2D2D2D005452494553204C45FC
:1001900046543A002D2D2D2D2D2D2D2D2D2D2D2D6F
:1001A0002D2D2D2D2D2D2D2D2D00232323204445A8
:1001B0004E4945442023232300484F4C44204B45BF
:1001C00059313A2052452D454E524F4C4C00555313
:1001D0004552002D2D2D2D2D2D2D2D2D2D2D2D2D3F
:1001E0002D2D2D2D2D2D2D2D002A2A2A20554E4C1A
:1001F0004F434B4544202A2A2A0041555448004287
:1002000041444B4E4F434B00415554480044454EEA
:1002100059004752414E54007365712C6D6F6465EF
:100220002C70696E5F757365722C6B6E6F636B5F9C
:10023000757365722C64322C7468722C6E302C6E5F
:10024000312C6E322C67306D732C67316D732C67D7
:10025000326D732C61302C61312C61322C61332C66
:10026000726573756C740023206B6E6F636B3266FE
:1002700061206C6F670054525920412053494D5002
:100280004C4552204F4E4500494E434F4E53495323
:1002900054454E540052485954484D20544F4F0035
:1002A0002D2D2D2D2D2D2D2D2D2D2D2D2D2D2D2D7E
:1002B0002D2D2D2D2D00454E524F4C4C20464149A1
:1002C0004C454400534156454420544F2045455029
:1002D000524F4D002D2D2D2D2D2D2D2D2D2D2D2D14
:1002E0002D2D2D2D2D2D2D2D2D00454E524F4C4CAD
:1002F000454400454E524F4C4C004241444B4E4FFA
:10030000434B00454E524F4C4C0053414D504C45D1
:1003100000454E524F4C4C20312F32203A2053454D
:100320005100535445502031202F204B4559205324
:10033000455100454E524F4C4C20312F32203A202F
:1003400053455100AED580A83FD300408D14200204
:10035000A1C8DA12817FD9F1DB40A4A6AF0000006A
:1003600000000000005F000000000000000000002E
:10037000000000000000000000000000000000007D
:10038000000000000000000000000000000000006D
:10039000000000000000000000000000000000005D
:1003A0000000000000000000000000080808080825
:1003B000000000400000006010080403003E5149A6
:1003C000453E0000427F4000004261514946002105
:1003D00041454739001814127F100027454545391B
:1003E000003C4A494930000171090503003649497A
:1003F000493600064949291E000000360000000069
:1004000000000000000000000000000000000000EC
:1004100000000000000000000000000000000000DC
:100420000000007E0909097E007F49494936003EE7
:1004300041414122007F4141221C007F49494941FD
:10044000007F09090901003E4141497A007F0808FF
:10045000087F0000417F410000304040403F007F66
:1004600008142241007F40404040007F020C027F80
:10047000007F0204087F003E4141413E007F0909A0
:100480000906003E4151215E007F091929460046B8
:10049000494949310001017F0101003F4040403F8F
:1004A000001F2040201F007F2018207F00631408B9
:1004B00014630003047804030061514945430000BC
:1004C000000000000000000000000000000000002C
:1004D00000000000000000000000000000001124E7
:1004E0001FBECFEFD8E0DEBFCDBF21E0A0E0B1E07E
:1004F00001C01D92A637B207E1F70E94F8040C94E0
:100500007B110C940000CF93DF93EC010E946010EC
:10051000AE0160E080E00E94AE1042E751E060E092
:1005200081E00E94AE1045E651E060E083E0DF919B
:10053000CF910C94AE10880F682F47ED50E087E004
:100540000C94AE10CF93DF93EC01FE0184918111E6
:1005500003C0DF91CF9108950E94BD102196F5CF81
:10056000CF93DF9300D000D00F92CDB7DEB74AE132
:1005700051E060E086E00E94AE1090912A01FE01F9
:10058000319680E0AF012AE2981711F0843081F4AF
:10059000FA01E80FF11D108260E086E00E94AB10C6
:1005A0000F900F900F900F900F90DF91CF910895C3
:1005B00021938F5FE9CF4F925F926F927F928F92DC
:1005C0009F92AF92BF92CF92DF92EF92FF920F93E2
:1005D0001F93CF93DF9300D000D0CDB7DEB72C01AF
:1005E000762E642E09831A832B833C830F89188D02
:1005F0006091260170912701809128019091290135
:100600000E94C4108CE20E94BD10C2010E94A2028E
:100610008CE20E94BD1077FC06C0672D70E080E080
:1006200090E00E94C4108CE20E94BD1067FC06C0DE
:10063000662D70E080E090E00E94C4108CE20E9481
:10064000BD1069817A818B819C810E94C4108CE2EB
:100650000E94BD10B601C7010E94C410750165015A
:1006600086E0C80ED11C8CE20E94BD10F70161919A
:1006700071917F0180E090E00E94C410EC14FD04B1
:1006800091F7640182E0C80ED11C74018EE0E80E7F
:10069000F11C8CE20E94BD10F60161917191819173
:1006A00091916F0120ED37E040E050E00E94391158
:1006B000B901CA010E94C410CE14DF0451F782E1CF
:1006C000880E911C8CE20E94BD10F70161917F01A0
:1006D00070E080E090E00E94C410E814F90491F703
:1006E0008CE20E94BD10C8010E94A2020F900F90E0
:1006F0000F900F90DF91CF911F910F91FF90EF908E
:10070000DF90CF90BF90AF909F908F907F906F9031
:100710005F904F900C9423118F929F92AF92BF9253
:10072000CF92DF92EF92FF921F93CF93DF93CDB7DB
:10073000DEB72B970FB6F894DEBF0FBECDBF6B01AF
:100740007C015A01C114DC04EC04FC04B1F480E324
:10075000FA01808311822B960FB6F894DEBF0FBE8C
:10076000CDBFDF91CF911F91FF90EF90DF90CF90A1
:10077000BF90AF909F908F90089510E04E018FEF43
:10078000881A980AB601C7012AE030E040E050E03C
:100790000E943911F401E10FF11D1F5F605D60835C
:1007A000C601D70169017A010A97A040B04050F70D
:1007B000812FE12FE81BEA0DFB2DF11D811102C0F5
:1007C0001082C9CF8150D401A80FB11D9C91908394
:1007D000F0CFEF92FF920F931F93CF93DF93CDB79C
:1007E000DEB72C970FB6F894DEBF0FBECDBF7B01EE
:1007F0008C010E94601042E551E060E080E00E94C0
:10080000AE104CE351E060E081E00E94AE104AE29D
:1008100051E060E083E00E94AE1045E251E060E00C
:1008200085E00E94AE10B701C80169517C4F8F4F1F
:100830009F4F28EE33E040E050E00E943911B901AB
:10084000CA019E012F5F3F4FA9010E948C03CE0178
:100850000196AC0165E085E00E94AB1041E251E0F9
:100860006CE085E00E94AE102C960FB6F894DEBFC7
:100870000FBECDBFDF91CF911F910F91FF90EF90F1
:1008800008950E94601048EC50E060E080E00E9413
:10089000AE1042EB50E060E081E00E94AE1080912B
:1008A0002F01811112C045EA50E060E083E00E9410
:1008B000AE1048E950E060E085E00E94AE104EE8DE
:1008C00050E060E086E00C94AE104BE750E060E052
:1008D00083E00E94AE1048E650E060E085E0F3CF90
:1008E0001F93CF93DF93CDB7DEB72C970FB6F89455
:1008F000DEBF0FBECDBF182F0E9460104AE051E04E
:1009000060E080E00E94AE1044EF50E060E081E0E3
:100910000E94AE1046EE50E060E083E00E94AE1010
:100920001030B9F049ED50E060E085E00E94AE1073
:10093000612F70E080E090E09E012F5F3F4FA901A2
:100940000E948C03CE010196AC016DE085E00E940F
:10095000AB102C960FB6F894DEBF0FBECDBFDF9163
:10096000CF911F910895EF92FF920F931F93CF9312
:10097000DF93CDB7DEB762970FB6F894DEBF0FBE38
:10098000CDBF7C018B016BE972E0CE0101960E9424
:10099000850982E19E012F5F3F4FF901D701019048
:1009A0000D928A95E1F7F7018081803059F0F801C6
:1009B00010821182128213821482158281E0868352
:1009C00080E009C0B801C70102960E94A60A982FCC
:1009D00081E09111F5CF62960FB6F894DEBF0FBE9D
:1009E000CDBFDF91CF911F910F91FF90EF900895B0
:1009F000CDB7DEB7AA970FB6F894DEBF0FBECDBF56
:100A0000219A29980E94B1100E94D50C0E94410C95
:100A10000E9454090E948C10789487E692E00E940C
:100A2000A2020E94231188E192E00E94A2020E9489
:100A300023118FE291E00E94300D10922A01109252
:100A4000260110922701109228011092290110927C
:100A5000250110922401109223010E94E80C69A341
:100A60007AA38BA39CA30E94750E853020F160E3CE
:100A700075E780E090E00E94E903312CC9A0DAA07C
:100A8000EBA0FCA0C601D7018DA39EA3AFA3B8A77E
:100A90000E94E80C2B013C01CB01D3018C199D096C
:100AA000AE09BF094497A040B04088F40E94F40CFE
:100AB0002601370109C00E94410433243394DECF5C
:100AC0004DA25EA26FA278A662017301E1CF0E94DF
:100AD000600C232D2930C8F4E32DF0E0E358FE4EDE
:100AE0000C945B11B201C30129A13AA14BA15CA1F5
:100AF000621B730B840B950B603325E7720781052E
:100B0000910560F080E00E948E0E0E94410449A28F
:100B10005AA26BA27CA233243394D6CF28EE33E0C2
:100B200040E050E00E9439116431704080409040B4
:100B300058F669A17AA18BA19CA1605D7A488F4F7C
:100B40009F4F64197509860997090E94E903BCCF74
:100B50008230C1F480912F01982B09F0B5CF10920B
:100B6000250110922A0183E393E00E9483024DA2A3
:100B70005EA26FA278A649A25AA26BA27CA275E0DF
:100B8000372EA2CF813009F09FCF20912F01203046
:100B900011F290932B0180932A0182E293E00E944C
:100BA00083020E94B0024DA25EA26FA278A649A263
:100BB0005AA26BA27CA262E0362E86CF813009F069
:100BC00080C180912A01E82FF0E0E55DFE4F90831F
:100BD0008F5F80932A010E94B00280912A018430A5
:100BE00008F46ECF0E94750E8F5F0E948E0E60918A
:100BF0002F0120E331E08FEF89A3312C4FE251E048
:100C0000EBE2F1E0D90180E09D9171919727892B6A
:100C10004E175F07C9F7811103C0361608F439A2D1
:100C200033942C5F3F4F832D833051F789A1E12C02
:100C3000F12C67018F3F59F0982F84E0989FF001C5
:100C40001124E15DFE4FC78CD0A0E1A0F2A080E0AE
:100C50000E9470048E01065E1F4FB8014E018FEF97
:100C6000881A980AC4010E94B304282E58018DA244
:100C700099A68030A1F19601A7016CE371E0C8014B
:100C80000E94E00EE22F2B8B3C8B4D8B5E8B6F8B8B
:100C9000788F898F89A18F3F19F0E817D9F08FEFEE
:100CA0008AA7212C8DE092E00C891D892E893F892D
:100CB0009F938F938DA099A44E2F69A188E092E015
:100CC0000E94DB020F900F902114D1F080E00E946F
:100CD0008E0E16C089A18AA782E192E0E5CF8FEF40
:100CE00091E09F938F9320E030E089014FEF69A15D
:100CF0008AEF91E00E94DB020F900F908FEF8AA79E
:100D00008091260190912701A0912801B09129019D
:100D10000196A11DB11D8093260190932701A093F8
:100D20002801B09329012114D9F1299A0E94601059
:100D300049EE51E060E080E00E94AE1043ED51E0EA
:100D400060E081E00E94AE104EEC51E060E083E094
:100D50000E94AE108AA5682F70E06F5F7F4F80E021
:100D600090E04DA159A50E948C034DA159A565E0C5
:100D700083E00E94AB1049EB51E060E086E00E9406
:100D8000AE1010922A010E94E80C69A37AA38BA3EB
:100D90009CA34DA25EA26FA278A62B013C0194CE2B
:100DA0000E9460104AEA51E060E080E00E94AE10CC
:100DB00044E951E060E081E00E94AE1048E851E073
:100DC00060E083E00E94AE100E94750E65E070E066
:100DD000681B7040872F880F880B982F4DA159A54D
:100DE0000E948C034DA159A56CE083E00E94AB10DA
:100DF00054E0352EC6CF823079F491110DC0299878
:100E000080912F01833008F080E0809325011092BB
:100E10002A0181E193E0A9CEC201D30129A13AA11F
:100E20004BA15CA1821B930BA40BB50B883B9B4091
:100E3000A040B04008F448CE299867CEC201D30143
:100E400029A13AA14BA15CA1821B930BA40BB50B6A
:100E5000843C9940A040B04008F436CE0E94750E04
:100E6000853008F452CE60E375E780E090E00E94A0
:100E7000E90349A25AA26BA27CA2312C25CE813073
:100E800001F580912A01E82FF0E0E55DFE4F9083A7
:100E90008F5F80932A010E94B00280912A018430E2
:100EA00008F40ECE10922401109223014DA25EA2EE
:100EB0006FA278A649A25AA26BA27CA246E0342E69
:100EC00003CEC201D3012DA13EA14FA158A5821B83
:100ED000930BA40BB50B80319742A040B04008F4AF
:100EE000F3CD10922A0111CE8091240195E0981B38
:100EF000892F0E947004CE014396BC0142970E9444
:100F0000B30460912501803009F4C9C080912401A7
:100F100097E0989FD0011124A050BF4F9E012D5EF5
:100F20003F4FF90101900D929A95E1F78F5F809301
:100F30002401109223018AE093E09F938F93CE01C6
:100F400001964C0142965C01E12CF12C670186016F
:100F500096014FEF83E093E00E94DB02809126012F
:100F600090912701A0912801B09129010196A11D1E
:100F7000B11D8093260190932701A0932801B0937F
:100F800029010F900F9080912401853008F49CCDA9
:100F9000CE014A96AC0165E080E091E00E94580BDA
:100FA000CE014A96AC0165E080E091E00E94E50B3D
:100FB000DC01CB01880F991FAA1FBB1F81322EE4D1
:100FC0009207A105B10508F0AAC0803D27E092076D
:100FD000A105B10518F4D60180ED97E02091250117
:100FE00034E0239FA0011124FA01E05DFE4FC09080
:100FF0002B01D0902C01E0902D01F0902E01C082A9
:10100000D182E282F38236E0239FF0011124E15D78
:10101000FE4F6A8D7B8D658776876C8D7D8D6787AA
:10102000708B6E8D7F8D618B728B30912F012317AA
:1010300018F02F5F20932F01415D5E4FFA01878FDB
:1010400090A3A1A3B2A38FE291E00E94E40D80E0FF
:101050000E948E0E27E0322E0E94E80C69A37AA32C
:101060008BA39CA30E946010832D873009F05AC087
:101070004AEE52E060E080E00E94AE1044ED52E0A3
:1010800060E081E00E94AE1044EC52E060E083E05A
:101090000E94AE1049A05AA06BA07CA015CD8AEF8B
:1010A00092E09F938F93CE0101964C0142965C0192
:1010B000E12CF12C6701860196014FEF83EF92E05E
:1010C0000E94DB028091260190912701A0912801C6
:1010D000B09129010196A11DB11D80932601909325
:1010E0002701A0932801B0932901809123018F5FEC
:1010F000809323010F900F909981913019F08530E2
:1011000008F441CF0E94E80C69A37AA38BA39CA3A7
:101110000E94410449A05AA06BA07CA0FCCC98E09E
:10112000392E9ACF46EB52E060E080E00E94AE108C
:1011300040EA52E060E081E00E94AE1045E952E0F2
:1011400060E083E00E94AE1048E852E060E084E096
:101150000E94AE1046E752E060E086E00E94AE10CA
:1011600049A05AA06BA07CA088E0382EADCCC2016B
:10117000D30129A13AA14BA15CA1821B930BA40B23
:10118000B50B843C9940A040B040A9CE2FB7F8944D
:101190004091840050918500809163019091640199
:1011A000B09B02C057FF01962FBFBA0108958091EE
:1011B0007A00806480937A0080917A0086FDFCCF6B
:1011C0008091790008951F921FB61F9211242F93CA
:1011D0003F934F935F936F937F938F939F93AF93BF
:1011E000BF93CF93DF93EF93FF938091860090910D
:1011F00087002091630130916401B09B04C097FD8A
:1012000002C02F5F3F4FD90140915A0150915B01BD
:1012100060915C0170915D01EC01F901C41BD50B7B
:10122000E60BF70BAE01BF014032514A67407040F8
:10123000B8F080935A0190935B01A0935C01B09346
:101240005D0120915E0121110BC080935F0190939D
:101250006001A0936101B093620181E080935E011F
:10126000FF91EF91DF91CF91BF91AF919F918F91BE
:101270007F916F915F914F913F912F911F901FBE72
:101280001F9018958F938FB78F939F9380916301D1
:1012900090916401019690936401809363019F9102
:1012A0008F918FBF8F91189557985F9880917F008D
:1012B000826080937F0080917E00816080937E00B9
:1012C00080917B008F7B80937B0084E480BF80E6ED
:1012D00080937C0084E880937A000E94D708109263
:1012E000800082E88093810081E280936F002091EA
:1012F0008400309185008091840090918500821B4C
:10130000930B80329E44B8F308952F923F924F92F0
:101310005F926F927F928F929F92AF92BF92CF9285
:10132000DF92EF92FF920F931F93CF93DF93CDB78E
:10133000DEB7AA970FB6F894DEBF0FBECDBF8BA362
:101340009CA36DA37EA31B821C821D821E821F8212
:10135000188619861A861B861C861D861E86FE0127
:101360003F9684E011928A95E9F75E0183E1A80E29
:10137000B11CF50180E111928A95E9F71FB7F89445
:1013800010925E010E94C608DC01CB018052914A96
:10139000A740B04080935A0190935B01A0935C01F9
:1013A000B0935D011FBF0E94C6082B013C0110E0F5
:1013B000C12C2BE1D22E27EBE22EF12C0A2D2B2C67
:1013C0009FB7F89480915E01812C912C540180305C
:1013D00049F080905F0190906001A0906101B09011
:1013E000620181E09FBF803009F493C00E94C6086B
:1013F0006FA378A789A79AA7312C0E94D70838161F
:1014000008F4382E0E94C608DC01CB012FA138A5B4
:1014100049A55AA5821B930BA40BB50B803A9F409C
:10142000A040B04050F3832D863430F184E0189F03
:10143000F0011124CE010196E80FF91F828A938AE8
:10144000A48AB58A0E96810F911DFC013082F12E7F
:10145000F3948DA19EA1892B21F0812FEDA1FEA1F6
:1014600009950E94C6082B013C011F2DC12C89E063
:10147000D82E9DE3E92EF12C8FB7F89410925E01DF
:101480008FBF143009F09CCF802F922DFE01339630
:101490009E01215E3F4FDC01049614964D915D91B3
:1014A0006D917D911897CD90DD90ED90FD904C1948
:1014B0005D096E097F09419351936193719382177E
:1014C000930749F780E089831A8382E1FE01319610
:1014D000ABA1BCA101900D928A95E1F78BA19CA1D3
:1014E000AA960FB6F894DEBF0FBECDBFDF91CF91A5
:1014F0001F910F91FF90EF90DF90CF90BF90AF9032
:101500009F908F907F906F905F904F903F902F9023
:1015100008950E94C608DC01CB0184199509A6092B
:10152000B7098C159D05AE05BF0508F449CF81E0CC
:10153000103049F282E0C7CFFC0110821182128282
:1015400013821482158281E0868308954F925F9200
:101550006F927F92AF92BF92CF92DF92EF92FF9203
:101560000F931F93CF93DF93CDB7DEB72C970FB6B2
:10157000F894DEBF0FBECDBF8B01FC017E018FEF63
:10158000E81AF80ACF010C96D701612C712C2301BF
:101590004081518162817381403828E3520721E004
:1015A00062077105C8F4C8010E949C0A81E02C966C
:1015B0000FB6F894DEBF0FBECDBFDF91CF911F9164
:1015C0000F91FF90EF90DF90CF90BF90AF907F9002
:1015D0006F905F904F90089534964D935D936D9307
:1015E0007D93440E551E661E771EE817F90781F697
:1015F00080EE481683E9580684E06806710428F4F2
:10160000C8010E949C0A82E0D2CF81E8481686E990
:10161000580688E96806710468F5C7010C9621E050
:10162000421629E052062DE36206710440F541148A
:1016300054046404740421F36801580186E0A80E80
:10164000B11CF70121913191419151917F01A8EE97
:10165000B3E00E9461119201A3010E943911F601C9
:10166000219331936F01EA15FB0559F7F8011682B2
:1016700080E09DCFC8010E949C0A83E098CFF701CB
:10168000612C712C23014191519161917191769559
:10169000679557954795DF017E936E935E934E93C2
:1016A000440E551E661E771EE817F90761F7B7CF7F
:1016B0006F927F928F929F92AF92BF92CF92DF9262
:1016C000EF92FF920F931F93CF93DF93CDB7DEB7C7
:1016D0002C970FB6F894DEBF0FBECDBF8A011982DA
:1016E0001A821B821C821D821E821F821886198606
:1016F0001A861B861C869C0180E061113CC0FA01A1
:10170000108211821282138220E030E0F8012483DB
:1017100035832C960FB6F894DEBF0FBECDBFDF9198
:10172000CF911F910F91FF90EF90DF90CF90BF90DE
:10173000AF909F908F907F906F9008958D909D9027
:10174000AD90BD90F301C190D1903F017D0194E037
:10175000E91AF1088C0C9D1CA11CB11CF7018082B8
:101760009182A282B3826416750641F78F5F295F6A
:101770003F4F681739F0DE0111963901A9014A5F20
:101780005F4FDCCFC62ED12CE12CF12C69817A8100
:101790008B819C819601A7010E943911F801208359
:1017A00031836D817E818F8198859601A7010E948A
:1017B0003911F8012283338369857A858B859C856D
:1017C0009601A7010E943911A1CF2F923F924F920B
:1017D0005F926F927F928F929F92AF92BF92CF92C1
:1017E000DF92EF92FF920F931F93CF93DF93862E9A
:1017F000342E252EFC01912C612C712C2301981084
:1018000015C0B201C301DF91CF911F910F91FF90DD
:10181000EF90DF90CF90BF90AF909F908F907F9090
:101820006F905F904F903F902F900895C32DD22DD1
:101830008F01E12CF12C67015F0186E0A80EB11C3D
:10184000D8016D917D918D012991399180E090E0D1
:10185000621B730B804090409B01AC010E942911D8
:10186000C60ED71EE81EF91EA016B10649F74C1485
:101870005D046E047F0410F42601370193943796BB
:10188000BECF1092690110926A0110926501109208
:101890006B0110926C011092660110926D01109212
:1018A0006E011092670110926F01109270011092F8
:1018B00068018AB1837C8AB98BB18C638BB9089536
:1018C0000F931F93CF9309E611E0E5E6F1E022E0E4
:1018D00030E080E090E0C22FC25069B1D8014D9154
:1018E0005D918D0170E0022E02C0759567950A9496
:1018F000E2F760FD25C04F3F540741F0BD01625043
:1019000070404F5F5F4FDB014D935D93408141110C
:101910000DC0A80142505040DA014D915D9144360E
:10192000504020F041E040838030C9F02F5F3F4FAE
:1019300031962630310579F6CF911F910F91089598
:10194000452BA1F34081BD0162507040DB011D9227
:101950001D921082482B51F79C2F81E0E7CF9C2FDE
:1019600082E0E4CF1F921FB61F9211248F939F93A2
:10197000AF93BF938091710190917201A091730117
:10198000B09174010196A11DB11D809371019093D6
:101990007201A0937301B0937401BF91AF919F91B5
:1019A0008F911F901FBE1F90189510927101109279
:1019B0007201109273011092740182E084BD93E071
:1019C00095BD99EF97BD16BC85BB80936E000895B9
:1019D0002FB7F89460917101709172018091730139
:1019E000909174012FBF089581E083BF889513BE45
:1019F0000895F999FECF92BD81BDF89A80B50895FA
:101A0000F999FECF92BD81BDF89A80B5861731F065
:101A100060BD8FB7F894FA9AF99A8FBF08951F9313
:101A2000CF93DF93EC010E94F90C182FCE010196A1
:101A30000E94F90C212F382FC901DF91CF911F91FE
:101A400008951F93CF93DF93EC01172F0E94000D91
:101A5000612FCE010196DF91CF911F910C94000D63
:101A60007F928F929F92AF92BF92CF92DF92EF922E
:101A7000FF920F931F93CF93DF938C01FC01108291
:101A80009C01245F3F4FDC0140ED57E060E070E0D7
:101A90008FEF478F50A361A372A3818382838383D7
:101AA00084831D961D921D921D921D921D921D9262
:101AB00034961D97E217F30761F780E090E00E94EB
:101AC0000F0D82339B4439F482E090E00E94F90CC0
:101AD000782E813011F0712C68C083E090E00E9474
:101AE000F90C8030C1F383E090E00E94F90C84305F
:101AF00090F788E290E00E940F0D6C01E12CF12C30
:101B0000E701CE010E94F90CE80EF11C2196C832C3
:101B1000D105B9F7CE14DF04F1F683E090E00E941E
:101B2000F90CF8018083C4E0D0E0680183E0C81AB2
:101B3000D1087601EC0EFD1E5E0184E0A80EB11CFA
:101B4000CE010E94F90CF70181937F012196CA15FD
:101B5000DB05B1F7C031D10561F745018C0C9D1C47
:101B6000E501CE010E940F0DF401819391934F0185
:101B70002296750186E0E80EF11CCE15DF0589F787
:101B8000C232D10511F05E01E8CFE8016F96C701BE
:101B90000E940F0D899399931992199282E0E80E91
:101BA000F11C88E2E816F10491F7872DDF91CF91BF
:101BB0001F910F91FF90EF90DF90CF90BF90AF906B
:101BC0009F908F907F9008958F929F92AF92BF9237
:101BD000CF92DF92EF92FF920F931F93CF93DF93F9
:101BE0008C0162E37BE480E090E00E94210D61E0E3
:101BF00082E090E00E94000DF801608183E090E0B7
:101C00000E94000DC4E0D0E0780183E0E81AF108FA
:101C10006701CC0EDD1E5E0184E0A80EB11CF6014A
:101C200061916F01CE010E94000D2196CA15DB055E
:101C3000B1F7C031D10561F747018A0C9B1CE50162
:101C4000F401619171914F01CE010E94210D229604
:101C5000650186E0C80ED11CCC15DD0589F7C232BE
:101C6000D10511F05E01E8CFE8016F968991999155
:101C7000A991B991382F292F81324EE49407A105FB
:101C8000B10558F12EE430E2632F722FC6010E9495
:101C9000210D82E0C80ED11C88E2C816D10431F7AC
:101CA00000E010E0E801CE010E94F90C080F111DC0
:101CB0002196C832D105B9F7B80188E290E0DF91EA
:101CC000CF911F910F91FF90EF90DF90CF90BF9039
:101CD000AF909F908F900C94210D803D9740A04035
:101CE000B04090F627E030EDCFCFCF9380E390E087
:101CF0000E94F90CC82F81E390E00E94F90C9C2F00
:101D000098239F3F41F08C278F3F19F48C2FC630CA
:101D100018F085E001C080E0CF910895CF93C82FDF
:101D2000863008F0C5E06C2F80E390E00E94000D43
:101D30006C2F609581E390E0CF910C94000D8F9211
:101D40009F92AF92BF92CF92DF92EF92FF924B01A0
:101D50005C0180E090E081149804A804B80491F03C
:101D60006B0175018FEFC81AD80AE80AF80AF694D1
:101D7000E794D794C794CB01D501C816D906EA06D3
:101D8000FB0648F0FF90EF90DF90CF90BF90AF90B0
:101D90009F908F900895B401C5019601A7010E94FC
:101DA00039112C0D3D1D4E1D5F1DBA01A901C60143
:101DB000D70176956795579547956A017B01DDCFE9
:101DC0002F923F924F925F926F927F928F929F924B
:101DD000AF92BF92CF92DF92EF92FF920F931F9339
:101DE000CF93DF93CDB7DEB72D970FB6F894DEBF54
:101DF0000FBECDBF5C012A873B874C875D87FC0106
:101E000086818887811165C0FB018FEF8987F82E55
:101E1000E82E6701150186E0280E311C85014F016F
:101E2000612C712C2301D8016D917D918D01D4011C
:101E30002D913D914D0180E090E0621B730B80403D
:101E400090409B01AC010E942911460E571E681E4E
:101E5000791E2016310639F74C145D046E047F0498
:101E600020F4888589876201730188858F5F888760
:101E70003696833099F6B601C7010E949F0E782FDF
:101E8000892F2A853B854C855D852C153D054E05A2
:101E90005F0538F13C2D4D2D5E2D6F2D298590E08D
:101EA0002D960FB6F894DEBF0FBECDBFDF91CF9158
:101EB0001F910F91FF90EF90DF90CF90BF90AF9068
:101EC0009F908F907F906F905F904F903F902F905A
:101ED00008958FEF8987F82EE82E670170E080E083
:101EE000D9CF9FEF9987D6CF80E29EE42091BC00A6
:101EF00027FF02C081E008950197C1F780E00895AF
:101F00001092B9008CE08093B80084E08093BC000C
:101F10000895CF93DF93C82FD62F84EA8093BC0017
:101F20000E94740F803001F18091B900887F883061
:101F300011F08031C1F48C2F880F91E0D11101C0D4
:101F400090E0892B8093BB0084E88093BC000E94C2
:101F5000740F803049F09091B900987F983121F04A
:101F600081E0903409F080E0DF91CF910895809373
:101F7000BB0084E88093BC000E94740F803039F06D
:101F80009091B900987F81E0983209F080E008953F
:101F900084E98093BC0080E29EE42091BC0024FF91
:101FA00002C00197D1F70895CF93C82F60E08CE36A
:101FB0000E94890F803041F080E00E94B70F8111AC
:101FC00005C00E94C80F80E0CF9108958C2F0E9419
:101FD000B70F8030B1F30E94C80F81E0F5CFCF93E7
:101FE000C62F806B0E94D40F803069F08C2F8F70C9
:101FF0000E94D40F803039F08C2F82958F708061D1
:10200000CF910C94D40FCF910895DF92EF92FF926D
:102010000F931F93CF93DF937A01D22E9091750186
:10202000903009F445C0883008F042C0162F110FD7
:10203000160F110F612F0E94EF0F8030C9F160E081
:102040008CE30E94890F803099F180E40E94B70FE1
:10205000811129C0DF91CF911F910F91FF90EF90D7
:10206000DF900C94C80FF701D11401F1C491C03076
:1020700089F38C2F8052803408F0C0E286E0C89F3C
:10208000E0011124C356DD4F06E0FE0184910E9459
:10209000B70F8030F9F2015021960111F6CF8FEF82
:1020A000E81AF80A1A5F1B37F0F2D4CFC081DFCFED
:1020B000DF91CF911F910F91FF90EF90DF900895E6
:1020C000CF93DF9380917501803019F1C0E060E01B
:1020D0008C2F0E94EF0F8030E1F060E08CE30E94D3
:1020E000890F8030B1F080E40E94B70F811104C0E5
:1020F000DF91CF910C94C80FD0E880E00E94B70F19
:10210000803011F0D150C9F70E94C80FCF5FC8309E
:10211000F1F6DF91CF9108951F93CF93DF93109243
:1021200075010E94800FC4E4D3E0FE0184910E94F7
:10213000D40F182F803051F0219683E0CD35D80789
:10214000A1F781E0809375010E946010812FDF91DB
:10215000CF911F91089520E00C94051021E00C947C
:1021600005101092C50089E18093C40088E0809337
:10217000C10086E08093C20008959091C00095FF51
:10218000FCCF8093C6000895AF92BF92CF92DF92AA
:10219000EF92FF921F93CF93DF93CDB7DEB72B97CC
:1021A0000FB6F894DEBF0FBECDBF6B017C01C1142A
:1021B000DC04EC04FC0491F480E32B960FB6F89455
:1021C000DEBF0FBECDBFDF91CF911F91FF90EF908B
:1021D000DF90CF90BF90AF900C94BD1010E05E01E7
:1021E0008FEFA81AB80AB601C7012AE030E040E034
:1021F00050E00E943911F501E10FF11D1F5F605D94
:102200006083C601D70169017A010A97A040B040F6
:1022100050F7111110C02B960FB6F894DEBF0FBE09
:10222000CDBFDF91CF911F91FF90EF90DF90CF90C6
:10223000BF90AF9008951150F501E10FF11D80811D
:102240000E94BD10E6CF8DE00E94BD108AE00C9484
:10225000BD10DB018F939F930E946111BF91AF91DD
:10226000A29F800D911DA39F900DB29F900D1124F0
:102270000895A1E21A2EAA1BBB1BFD010DC0AA1FC7
:10228000BB1FEE1FFF1FA217B307E407F50720F0DF
:10229000A21BB30BE40BF50B661F771F881F991F5A
:1022A0001A9469F760957095809590959B01AC01A3
:1022B000BD01CF010895EE0FFF1F0590F491E02DB1
:1022C00009940E946C11A59F900DB49F900DA49F3E
:1022D000800D911D11240895A29FB001B39FC001EC
:1022E000A39F700D811D1124911DB29F700D811D42
:1022F0001124911D0895F894FFCF7205A805DE05FD
:0C230000FB061E073F077407B708B7086C
:00000001FF
